:100000000C9420010C9448010C9448010C94480174
:100010000C9448010C9448010C9448010C9448013C
:100020000C9448010C9448010C9448010C9448012C
:100030000C9448010C9448010C9448010C9448011C
:100040000C9482090C9448010C94F2090C94CC098C
:100050000C9448010C9448010C9448010C944801FC
:100060000C9448010C944801554E4B4E4F574E206E
:10007000434F4D4D414E44004144442C31332C56A6
:1000800049525455414C5F504F5745522C55382CCE
:1000900052572C5669727475616C20506F77657277
:1000A0002C4F56455248454144207669727475611B
:1000B0006C20706F7765722030206F7220312C5069
:1000C0004552534953543D31004144442C31322C64
:1000D0004241434B4C494748545F4252492C5538A2
:1000E0002C52572C4261636B6C69676874204272B2
:1000F000696768746E6573732C4F766572686561A5
:10010000642070616E656C206261636B6C69676806
:1001100074206272696768746E6573732066726FAB
:100120006D203020746F203235352C5045525349A4
:1001300053543D3100504F4E4700535441544553A2
:1001400043414E0053544154455343414E0050499E
:10015000443D434654413332584F56485543005668
:1001600049443D314C325000415554484F523D3383
:100170003630623831326566313064333365353458
:100180003537656537623431323834353336660099
:100190004346542041333258204F5648205543009F
:1001A0007B34636534393333662D383534372D3439
:1001B0003764302D613736392D3261313162333356
:1001C00033393333317D005350414400415454415D
:1001D0004348494E472043414C4C4241434B5321F5
:1001E0000000000000240027002A00000000002575
:1001F0000028002B00000000002300260029000436
:1002000004040404040404020202020202030303BD
:1002100003030301020408102040800102040810B7
:100220002001020408102000000008000201000064
:10023000030407000000000000000000240AE6128A
:1002400011241FBECFEFD8E0DEBFCDBF28E0A2EE65
:10025000B2E001C01D92AC3AB207E1F712E0A0E0B3
:10026000B1E0E2EAFBE202C005900D92A23EB107C6
:10027000D9F711E0CFE1D1E004C02197FE010E943F
:10028000C313CE31D107C9F70E94C30E0C94C41515
:100290000C940000AC011092F105909141088091FE
:1002A0004008FA01BF01641B750B2091F1053081F4
:1002B0003093F105931304C0921302C01092F1051C
:1002C0003081311104C0921721F0CB010895381705
:1002D000D1F33196E7CF0F931F93CF93DF938091A4
:1002E0003508882309F446C0D0E0C0E0813029F405
:1002F00082E080933508C5EFD5E0809136088823E9
:1003000041F1209721F4C0913A08D0913B088E0129
:10031000CE010E944A01892B29F42196F80180819F
:100320008111F5CFF8018081882309F1C8010E946D
:100330004A01F801E80FF91F8081882311F010822B
:100340003196F0933B08E0933A08109339080093F4
:1003500038088091380890913908892B59F081E04C
:1003600080933608DF91CF911F910F91089510E08F
:1003700000E0EBCF80E0F6CF833081F028F48130CD
:1003800099F08230A9F008958730A9F08830C9F03B
:100390008430B1F4809180008F7D03C08091800013
:1003A0008F7780938000089584B58F7784BD0895FA
:1003B00084B58F7DFBCF8091B0008F778093B000A4
:1003C00008958091B0008F7DF9CF1F93CF93DF9375
:1003D000282F30E0F901E95DFD4F8491F901ED5ED0
:1003E000FD4FD491F901E150FE4FC491CC23A9F007
:1003F000162F81110E94BC01EC2FF0E0EE0FFF1FC1
:10040000E551FE4FA591B4918FB7F894EC9111117D
:1004100008C0D095DE23DC938FBFDF91CF911F9171
:100420000895DE2BF8CFCF92DF92EF92FF920F93D9
:100430001F93CF93DF9380910B0390910C03A091B6
:100440000D03B0910E038093070390930803A093CC
:100450000903B0930A0361E0809101030E94E50162
:1004600060E0809100030E94E5018091060390E026
:100470008230910538F0880F991F880F991F0597D2
:100480000197F1F761E0809100030E94E50160E0CF
:10049000809101030E94E501D0E0C0E0C12CD12C85
:1004A00076018091040390910503C817D90708F0DD
:1004B00058C02091020330E0F901E95DFD4F8491BD
:1004C000F901ED5EFD4F1491F901E150FE4F0491E9
:1004D000002309F443C081110E94BC01E02FF0E029
:1004E000EE0FFF1FEB50FE4FA591B491EC911E2330
:1004F00031E020E009F430E0832F922F092E000C28
:10050000AA0BBB0B20910403309105032150310944
:100510002C1B3D0B04C0880F991FAA1FBB1F2A95D7
:10052000D2F7C82AD92AEA2AFB2A61E0809103037C
:100530000E94E5018091060390E08230910538F039
:10054000880F991F880F991F05970197F1F760E0B1
:10055000809103030E94E5012196A3CF90E080E003
:10056000CDCFC0920B03D0920C03E0920D03F0921A
:100570000E03C701B601DF91CF911F910F91FF903C
:10058000EF90DF90CF900895CF93DF9390E0FC0140
:10059000ED5EFD4F249181509E4FFC018491882394
:1005A000D1F090E0880F991FFC01EF51FE4FA5910B
:1005B000B491FC01E551FE4FC591D49161110EC07B
:1005C0009FB7F8948C91E22FE0958E238C9328812D
:1005D000E223E8839FBFDF91CF9108958FB7F8940E
:1005E000EC91E22BEC938FBFF6CF3FB7F89480915C
:1005F000F3029091F402A091F502B091F60226B5B3
:10060000A89B05C02F3F19F00196A11DB11D3FBF4A
:10061000BA2FA92F982F8827BC01CD01620F711D19
:10062000811D911D42E0660F771F881F991F4A9513
:10063000D1F708958F929F92AF92BF92CF92DF929F
:10064000EF92FF924B015C010E94F5026B017C016D
:100650000E94F5026C197D098E099F09683E73405E
:1006600081059105A8F321E0821A9108A108B1083B
:1006700088EEC80E83E0D81EE11CF11C81149104A1
:10068000A104B10429F7FF90EF90DF90CF90BF90C5
:10069000AF909F908F9008952FB7F8946091EF02DC
:1006A0007091F0028091F1029091F2022FBF0895B3
:1006B000DC01ED91FC910190F081E02D0994EF9225
:1006C000FF920F931F93CF93DF932091EC0522238A
:1006D000E9F08C016091400880913D0890913E08BE
:1006E0000E945803E0903D08F0903E08E801FE01AA
:1006F0006491662359F0D701ED91FC910190F0814E
:10070000E02DC70109952196892B89F7DF91CF91BB
:100710001F910F91FF90EF900895AF92BF92CF92EB
:10072000DF92EF92FF920F931F93CF93DF936C01B1
:100730007B018B01040F151FEB015E01AE18BF0892
:10074000C017D10759F06991D601ED91FC91019044
:10075000F081E02DC6010995892B79F7C501DF915C
:10076000CF911F910F91FF90EF90DF90CF90BF90AE
:10077000AF900895FC01538D448D252F30E0842FD8
:1007800090E0821B930B541710F0CF9608950197B9
:100790000895FC01918D828D981761F0A28DAE0FA6
:1007A000BF2FB11D5D968C91928D9F5F9F73928F2D
:1007B00090E008958FEF9FEF0895FC01918D828D59
:1007C000981731F0828DE80FF11D858D90E0089526
:1007D0008FEF9FEF0895FC01918D228D892F90E07E
:1007E000805C9F4F821B91098F73992708958FE436
:1007F00095E00E94EB0321E0892B09F420E0822F91
:10080000089580E090E0892B29F00E94F703811180
:100810000C9400000895FC01A48DA80FB92FB11D00
:10082000A35ABF4F2C91848D90E001968F73992726
:10083000848FA689B7892C93A089B1898C91837004
:1008400080648C93938D848D981306C00288F389FD
:10085000E02D80818F7D80830895EF92FF920F932A
:100860001F93CF93DF93EC0181E0888F9B8D8C8D5C
:1008700098131AC0E889F989808185FF15C09FB750
:10088000F894EE89FF896083E889F9898081837013
:10089000806480839FBF81E090E0DF91CF911F91C2
:1008A0000F91FF90EF900895F62E0B8D10E00F5FE3
:1008B0001F4F0F731127E02E8C8D8E110CC00FB6B9
:1008C00007FCFACFE889F989808185FFF5CFCE0151
:1008D0000E940B04F1CFEB8DEC0FFD2FF11DE35ABD
:1008E000FF4FF0829FB7F8940B8FEA89FB898081D4
:1008F0008062CFCFCF93DF93EC01888D8823B9F04E
:10090000AA89BB89E889F9898C9185FD03C080811A
:1009100086FD0DC00FB607FCF7CF8C9185FFF2CF97
:10092000808185FFEDCFCE010E940B04E9CFDF91DE
:10093000CF910895CF93DF93EC0161E086E00E94B0
:10094000C402209759F460E086E00E94E501D0934C
:10095000E302C093E202DF91CF910895CF3FD1052A
:1009600011F461E0F1CFEDE2F2E0E491E33019F14E
:1009700040F4E130B1F0E230C9F0C038D1058CF775
:10098000E2CFE73011F1E83041F1E430B1F7809186
:100990008000806280938000D0938B00C0938A0097
:1009A000D6CF84B5806884BDC7BDD1CF84B5806201
:1009B00084BDC8BDCCCF80918000806880938000CA
:1009C000D0938900C0938800C2CF8091B000806826
:1009D0008093B000C093B300BACF8091B000806222
:1009E0008093B000C093B400B2CFEF92FF920F9308
:1009F0001F93CF93DF93D0E0C0E08091FC029091F1
:100A0000FD02A091FE02B091FF020C2E04C0B6952B
:100A1000A795979587950A94D2F7182FF090F8022A
:100A2000E090F70208E0612F661F6627661F8E2D93
:100A30000E94E501110F61E08F2D0E94E50160E049
:100A40008F2D0E94E501015071F72896C831D1051C
:100A5000A1F661E08091F9020E94E50160E08091D9
:100A6000F9020E94E5016091FC027091FD02809103
:100A7000FE029091FF02DF91CF911F910F91FF90A5
:100A8000EF9008951092FC021092FD021092FE0267
:100A90001092FF020C94F5040E946B01882359F018
:100AA00081E08093360880933708809138089091D0
:100AB00039080C9426131092370860E070E0CB01DF
:100AC00008950E944C050C944C05CF92DF92EF9252
:100AD000FF920E944C056B017C010E944C05AB010A
:100AE000BC01E3E5F4E030E020E081819281092E51
:100AF000000CAA0BBB0B8C159D05AE05BF05D9F5E7
:100B0000C090FC02D090FD02E090FE02F090FF0247
:100B10008CE0829FF001839FF00D1124ED5AFB4F72
:100B2000208181E090E0A0E0B0E004C0880F991F30
:100B3000AA1FBB1F2A95D2F7452B462B472B91F0B6
:100B40008C299D29AE29BF298093FC029093FD0238
:100B5000A093FE02B093FF02FF90EF90DF90CF9042
:100B60000C94F50480959095A095B0958C219D21CD
:100B7000AE21BF21E9CF2F5F3F4F3C962431310595
:100B800009F0B3CFE9CF0E944C056F3F7105810595
:100B9000910509F018F4CB010C949A0408950E9471
:100BA0004C05672B682B692B41F461E086E00E94BD
:100BB000C40260E086E00C94E5018091E20290912D
:100BC000E3020C949A04FC0180819181009711F05A
:100BD0000C9465140895FB0101900020E9F731970A
:100BE000AF01461B570BDC01ED91FC910280F381B4
:100BF000E02D09948091EC058823A1F060913F08D5
:100C000080913D0890913E080E9458038091F40520
:100C1000882341F068E171E080913D0890913E08A1
:100C20000E94EB051092F3051092EC0580E0089508
:100C30008F929F92AF92BF92EF92FF920F931F936A
:100C4000CF93DF93CDB7DEB7A1970FB6F894DEBF91
:100C50000FBECDBF7C01FA01CB0119A2223008F4EE
:100C60002AE08E010F5D1F4F822E912CB12CA12CFA
:100C7000BF01A50194010E94A113F901CA016A30C4
:100C80000CF5605DD8016E938D01232B242B252B51
:100C900079F790E080E0109721F0BD01C7010E9434
:100CA000EB05A1960FB6F894DEBF0FBECDBFDF9166
:100CB000CF911F910F91FF90EF90BF90AF909F90B9
:100CC0008F900895695CDECFCF92DF92EF92FF9212
:100CD0000F931F93CF93DF9377FF1DC06A017B01B2
:100CE000EC016DE20E9458038C0144275527BA019C
:100CF0004C195D096E097F092AE0CE010E94180691
:100D0000800F911FDF91CF911F910F91FF90EF9076
:100D1000DF90CF9008952AE0DF91CF911F910F913E
:100D2000FF90EF90DF90CF900C941806CF939091A6
:100D3000EC059923A9F0C82F6091400880913D08E7
:100D400090913E080E9458034C2FCC0F550B660B18
:100D5000770B80913D0890913E08CF910C946406EA
:100D6000CF910895CF93DF932091EC052223A9F032
:100D7000EC016091400880913D0890913E080E94EE
:100D80005803AE01DD0F660B770B80913D08909103
:100D90003E08DF91CF910C946406DF91CF910895C6
:100DA0009091EC05911110C091E09093EC05909317
:100DB000F305482F50E070E060E02AE080913D08A4
:100DC00090913E080C9418060895CF93DF9390916C
:100DD000EC0591110AC0EB010E94D006CE010E94E1
:100DE0005F03DF91CF910C94FA0580E0DF91CF9102
:100DF000089568E670E083E00C94E506CF93DF93F6
:100E00000E946B01882301F181E080933608809372
:100E10003708C0913808D09139086DE971E0CE01EA
:100E20000E94B415892BA9F481E08093E4028CE040
:100E30000E94D0068091E2029091E3020E94B206E5
:100E4000DF91CF910C94FA0510923708D0E0C0E002
:100E5000E4CF6BE171E0CE010E94B415892B39F02B
:100E600060E271E0CE010E94B415892B51F410921A
:100E7000E4020E94420590E080E0DF91CF910C9463
:100E80009A046BE271E0CE010E94B415892B79F3CC
:100E9000DF91CF910895CF92DF92EF92FF920F935F
:100EA0001F93CF93DF930E946B01882309F48AC0BC
:100EB00081E08093360880933708C0913808D0913C
:100EC00039086FE271E0CE010E94B415892B09F058
:100ED0007EC080E00E94D00662E370E080E090E097
:100EE0000E941A0387EC91E00E945F0362E370E0C6
:100EF00080E090E00E941A0380EA91E00E945F0384
:100F000062E370E080E090E00E941A0380E991E0E3
:100F10000E945F0362E370E080E090E00E941A03A9
:100F200082E090E00E94B20681E090E00E94B2066A
:100F300088E691E00E945F0362E370E080E090E069
:100F40000E941A038FE591E00E945F0362E370E064
:100F500080E090E00E941A038EE491E00E945F031B
:100F600062E370E080E090E00E941A030E94FA05BC
:100F700088EC90E00E949A0464E670E080E090E0E3
:100F80000E941A0390E080E00E949A0464E670E0F8
:100F900080E090E00E941A0388EC90E00E949A049E
:100FA00064E670E080E090E00E941A0390E080E048
:100FB000DF91CF911F910F91FF90EF90DF90CF9035
:100FC0000C949A0410923708D0E0C0E07ACF64E322
:100FD00071E0CE010E94B4157C01892B09F0CBC0D1
:100FE00080E00E94D00684E491E00E945F0381E0EB
:100FF00090E00E94B2060E94FA050E9413028CE063
:10100000C82EDD24D394CE9CE001CF9CD00D1124BA
:10101000C15FDC4F89819A819C01205D37402C3271
:10102000314008F049C0288180910B0390910C0356
:10103000A0910D03B0910E0304C0B695A7959795A6
:1010400087952A95D2F780FD29C088E00E94D006B6
:1010500089819A810E94B20689850E9496060E9423
:10106000FA051B86FFEFEF1AFF0A4BE1E416F104C5
:1010700054F280E00E94D0068AE391E00E945F0370
:1010800082E090E00E94B206DF91CF911F910F9114
:10109000FF90EF90DF90CF900C94FA0588E00E94CB
:1010A000D00689819A810E94B2068A850E9496069E
:1010B0000E94FA05DB86D6CF8C5F98408536910575
:1010C00088F68FEFE81AF80A80910B0390910C03D1
:1010D000A0910D03B0910E032881AC01BD0104C0A5
:1010E00076956795579547952A95D2F7CE9C8001BE
:1010F000CF9C100D112440FD12C088E00E94D00644
:1011000089819A810E94B20689850E9496060E9472
:10111000FA051B86015F1C4FF801D386A3CF015F40
:101120001C4FF801208104C0B695A7959795879527
:101130002A95D2F780FD11C088E00E94D006F80100
:10114000818192810E94B206F80181850E949606F3
:101150000E94FA05F8011386ADCF88E00E94D00600
:1011600089819A810E94B2068A850E9496060E9411
:10117000FA05DB86D1CF6EE371E0CE010E94B41593
:10118000892B59F50E944C036093E5027093E602A7
:101190008093E7029093E80280E00E94D00685E306
:1011A00091E00E945F030E944C056B017C018091DD
:1011B000EC05882309F468CF6091400880913D08D0
:1011C00090913E080E945803B701A60180913D0806
:1011D00090913E080E94640657CF6BE271E0CE0109
:1011E0000E94B415892B19F40E944205DFCE63E4F6
:1011F00071E0CE010E94B415892B91F569EC70E085
:1012000081E00E94E50662E370E080E090E00E94E9
:101210001A0368E770E081E00E94E50662E370E08F
:1012200080E090E00E941A038091EC05811118C0C3
:101230000E94D0068091EC05882309F425CF6091A7
:10124000400880913D0890913E080E94580363E455
:1012500071E080913D0890913E080E94EB0514CF0B
:10126000DF91CF911F910F91FF90EF90DF90CF9082
:101270000895EF92FF920F931F93CF93DF93EC01AA
:101280007B01198218821B821A821D821C82FB013B
:1012900001900020E9F731978F01061B170BB80169
:1012A0006F5F7F4F90E080E00E94EE140097B9F0EE
:1012B000998388831B830A832C813D81232B11F41E
:1012C000FC0110821D830C83B70188819981DF9115
:1012D000CF911F910F91FF90EF900C94BD158881D5
:1012E0009981009711F00E946514198218821D825D
:1012F0001C821B821A82DF91CF911F910F91FF9068
:10130000EF9008951F920F920FB60F9211242F9312
:101310003F938F939F93AF93BF938091EF029091F0
:10132000F002A091F102B091F2023091EE0223E0BE
:10133000230F2D3758F50196A11DB11D2093EE0204
:101340008093EF029093F002A093F102B093F20227
:101350008091F3029091F402A091F502B091F6020F
:101360000196A11DB11D8093F3029093F402A09306
:10137000F502B093F602BF91AF919F918F913F918B
:101380002F910F900FBE0F901F90189526E8230FF6
:101390000296A11DB11DD2CF1F920F920FB60F92D0
:1013A00011242F933F934F935F936F937F938F936A
:1013B0009F93AF93BF93EF93FF938FE495E00E94C9
:1013C0000B04FF91EF91BF91AF919F918F917F910E
:1013D0006F915F914F913F912F910F900FBE0F90A2
:1013E0001F9018951F920F920FB60F9211242F93F2
:1013F0008F939F93EF93FF93E0915F05F0916005CA
:101400008081E0916505F091660582FD1BC09081A9
:10141000809168058F5F8F7320916905821741F075
:10142000E0916805F0E0E15BFA4F958F80936805E5
:10143000FF91EF919F918F912F910F900FBE0F9081
:101440001F9018958081F4CF3F924F925F926F92D8
:101450007F928F929F92AF92BF92CF92DF92EF9244
:10146000FF920F931F93CF93DF9310925205109228
:10147000510588EE93E0A0E0B0E08093530590938F
:101480005405A0935505B09356058AE091E09093DA
:10149000500580934F0585EC90E090935C05809318
:1014A0005B0584EC90E090935E0580935D0580EC95
:1014B00090E09093600580935F0581EC90E09093BD
:1014C00062058093610582EC90E0909364058093BF
:1014D000630586EC90E09093660580936505109215
:1014E00068051092690510926A0510926B051092BA
:1014F0004308109242088FE495E090933E08809351
:101500003D081092F4058CE2809340088BE38093B1
:101510003F088FE28093410880E48093EF058FE3DA
:101520008093F0051092EE05109239081092380859
:1015300010923B0810923A0881E080933608E4E468
:10154000F8E01192119288E0E83AF807D1F710928A
:10155000F3056AE471E089E495E00E9439096BE6DD
:1015600071E083E495E00E94390986E1482E4092BB
:10157000530488EE93E090935504809354046AE1F9
:1015800071E086E594E00E943909C1E0C0935C04F3
:1015900010925D04DFEFD0935E0497E1392E309214
:1015A0005F0489EE93E090936104809360046AE1A4
:1015B00071E082E694E00E943909C09368041092B9
:1015C0006904D0936A0424E1522E50926B048AEE8F
:1015D00093E090936D0480936C046AE171E08EE671
:1015E00094E00E943909C093740410927504D0935A
:1015F000760485E1809377048BEE93E090937904F1
:10160000809378046AE171E08AE794E00E943909E6
:10161000C093800410928104D093820433E1632E3E
:10162000609283048CEE93E090938504809384040D
:101630006AE171E086E894E00E943909C0938C0465
:1016400010928D04D0938E0482E180938F048DEEEE
:1016500093E090939104809390046AE171E082E9B1
:1016600094E00E943909C093980410929904D09391
:101670009A0441E1742E70929B048EEE93E0909355
:101680009D0480939C046AE171E08EE994E00E94DD
:101690003909C093A4041092A504D093A60400E1D4
:1016A0000093A7048FEE93E09093A9048093A8047D
:1016B0006AE171E08AEA94E00E943909C093B004BB
:1016C0001092B104D093B2045AE0E52EE092B30434
:1016D00080EF93E09093B5048093B4046AE171E0E5
:1016E00086EB94E00E943909C093BC041092BD04BB
:1016F000D093BE046BE0B62EB092BF0481EF93E0AE
:101700009093C1048093C0046AE171E082EC94E09C
:101710000E943909C093C8041092C904D093CA0426
:1017200079E0872E8092CB0482EF93E09093CD04F2
:101730008093CC046AE171E08EEC94E00E94390958
:10174000C093D4041092D504D093D604E8E0CE2EF2
:10175000C092D70483EF93E09093D9048093D80488
:101760006AE171E08AED94E00E943909C093E004D7
:101770001092E104D093E204F3E0AF2EA092E304D0
:1017800084EF93E09093E5048093E4046AE171E0D0
:1017900086EE94E00E943909C093EC041092ED04A7
:1017A000D093EE0412E01093EF0485EF93E0909352
:1017B000F1048093F0046AE171E082EF94E00E940A
:1017C0003909C093F8041092F904D093FA04C09335
:1017D000FB0486EF93E09093FD048093FC046AE1A0
:1017E00071E08EEF94E00E943909C09304051092D5
:1017F0000505D09306051092070587EF93E09093B7
:101800000905809308056AE171E08AE095E00E948D
:101810003909C093100510921105D0931205ACE060
:10182000DA2ED092130588EF93E0909315058093FC
:1018300014056AE171E086E195E00E943909C093E0
:101840001C0510921D05D0931E058DE080931F0589
:1018500089EF93E090932105809320056AE171E080
:1018600082E295E00E943909C0932805109229056B
:10187000D0932A05BFE09B2E90922B058AEF93E030
:1018800090932D0580932C056AE171E08EE295E03E
:101890000E943909C093340510923505D09336055E
:1018A0008EE0F82EF09237058BEF93E09093390598
:1018B000809338056AE171E08AE395E00E94390976
:1018C000C093400510924105D093420588E1809372
:1018D0000F0380ED97E0909311038093100362E96A
:1018E00071E082E193E00E943909C09318031092DD
:1018F0001903D0931A038BE180931B0381ED97E0CA
:1019000090931D0380931C0363EA71E08EE193E0E2
:101910000E943909C093240310922503D093260313
:101920003092270384E398E090932903809328035F
:1019300060EB71E08AE293E00E943909C0933003C2
:1019400010923103D09332034092330385E398E041
:10195000909335038093340361EC71E086E393E068
:101960000E943909C0933C0310923D03D0933E037B
:1019700050923F0386E398E09093410380934003A5
:1019800065ED71E082E493E00E943909C093480359
:1019900010924903D0934A0360924B0387E398E087
:1019A00090934D0380934C0363EE71E08EE493E0DB
:1019B0000E943909C093540310925503D0935603E3
:1019C0007092570388E398E09093590380935803EB
:1019D00065EF71E08AE593E00E943909C0936003E6
:1019E00010926103D09362030093630389E398E04C
:1019F000909365038093640367E072E086E693E06A
:101A00000E943909C0936C0310926D03D0936E034A
:101A10008FE180936F038AE398E090937103809342
:101A2000700364E172E082E793E00E943909C09399
:101A3000780310927903D0937A038EE180937B032D
:101A40008BE398E090937D0380937C0366E272E0E1
:101A50008EE793E00E943909C093840310928503B6
:101A6000D09386038CE1809387038CE398E0909376
:101A70008903809388036BE372E08AE893E00E9415
:101A80003909C093900310929103D093920305E01B
:101A90000093930388E998E09093950380939403CF
:101AA00060E572E086E993E00E943909C0939C03E7
:101AB00010929D03D0939E0384E080939F0389E955
:101AC00098E09093A1038093A0036EE572E082EA10
:101AD00093E00E943909C093A8031092A903D09300
:101AE000AA038092AB038AE998E09093AD038093B8
:101AF000AC036AE672E08EEA93E00E943909C09373
:101B0000B4031092B503D093B60389E18093B70371
:101B10008BE998E09093B9038093B8036DE772E086
:101B20008AEB93E00E943909C093C0031092C1036D
:101B3000D093C2039092C3039CEF892E98E0992E14
:101B40009092C5038092C4036EE872E086EC93E045
:101B50000E9439091092CC03C093CD03D093CE03D9
:101B6000C092CF039092D1038092D0036EE872E0CE
:101B700082ED93E00E9439091093D803C093D903F2
:101B8000D093DA03A092DB032DEF822E28E0922E71
:101B90009092DD038092DC036CE972E08EED93E0BD
:101BA0000E9439091092E403C093E503D093E60341
:101BB0001093E7039092E9038092E8036CE972E0E6
:101BC0008AEE93E00E9439091093F003C093F10369
:101BD000D093F203B092F3033EEFA32E38E0B32E7E
:101BE000B092F503A092F40367EA72E086EF93E007
:101BF0000E9439091092FC03C093FD03D093FE03A9
:101C0000E092FF03B0920104A092000467EA72E040
:101C100082E094E00E94390910930804C0930904FB
:101C2000D0930A0486E080930B04AA24AA9448E087
:101C3000B42EB0920D04A0920C0465EB72E08EE01D
:101C400094E00E94390910921404C0931504D093B3
:101C5000160487E080931704B0921904A092180428
:101C600065EB72E08AE194E00E9439091093200448
:101C7000C0932104D0932204C0932304A12C59E0E3
:101C8000B52EB0922504A092240463EC72E086E2A3
:101C900094E00E94390910922C04C0932D04D09333
:101CA0002E0410922F04B0923104A092300463EC01
:101CB00072E082E394E00E94390910933804C093E3
:101CC0003904D0933A04F0923B0460E6E62E69E0D2
:101CD000F62EF0923D04E0923C046FEC72E08EE34D
:101CE00094E00E94390910924404C0934504D093B3
:101CF0004604D0924704F0924904E09248046FEC05
:101D000072E08AE494E00E94390910935004C09371
:101D10005104D093520480E290E0909305038093A5
:101D20000403009306031092070310920803109215
:101D3000090310920A0310920B0310920C031092E5
:101D40000D0310920E0388E190E09093FB028093C4
:101D5000FA021092FC021092FD021092FE02109202
:101D6000FF02DF91CF911F910F91FF90EF90DF90D5
:101D7000CF90BF90AF909F908F907F906F905F902B
:101D80004F903F900895CF93DF9300D000D0CDB710
:101D9000DEB7789484B5826084BD84B5816084BDEB
:101DA00085B5826085BD85B5816085BD80916E00F9
:101DB000816080936E00109281008091810082602A
:101DC0008093810080918100816080938100809167
:101DD00080008160809380008091B1008460809356
:101DE000B1008091B00081608093B00080917A0052
:101DF000846080937A0080917A00826080937A0078
:101E000080917A00816080937A0080917A00806866
:101E100080937A001092C1000E944C036093E50207
:101E20007093E6028093E7029093E8026093EA02DF
:101E30007093EB028093EC029093ED0261E086E0F8
:101E40000E94C4028091E2029091E3020E949A04EF
:101E500083E08093000361E00E94C40285E08093E8
:101E6000010361E00E94C40284E08093020360E009
:101E70000E94C40242E0642E6092030361E082E0AB
:101E80000E94C40289E08093F70261E00E94C402CC
:101E900087E08093F80261E00E94C40288E08093AA
:101EA000F90261E00E94C4020E94F504E0915F051E
:101EB000F09160056082E0915B05F0915C05108215
:101EC000E0915D05F0915E0580E1808310926705E9
:101ED000E0916305F091640586E08083E0916105FF
:101EE000F0916205808180618083E0916105F091CD
:101EF0006205808188608083E0916105F0916205D0
:101F0000808180688083E0916105F0916205808125
:101F10008F7D80836CEC71E083E00E94E5068BE4AA
:101F200097E090934508809344088EEF96E0909355
:101F300049088093480889EF96E090934B08809376
:101F40004A0881E695E090934F0880934E0885E615
:101F500095E0909351088093500883EC95E090931E
:101F60005D0880935C088FEC95E090935F08809308
:101F70005E088FEF9FEFDC018093FC029093FD02DF
:101F8000A093FE02B093FF020E94F50464EF71E09B
:101F900080E090E00E941A031092FC021092FD0271
:101FA0001092FE021092FF020E94F50450E8252EC6
:101FB000312C60E4462E512C01E01CE00E944C03C1
:101FC000C090EA02D090EB02E090EC02F090ED02BB
:101FD0006C197D098E099F0965367105810591058A
:101FE00008F40FC10E941302C0900703D0900803A9
:101FF000E0900903F0900A0321E06C157D058E0541
:102000009F0509F420E02093E9026C157D058E05FB
:102010009F0509F4ECC080910B0390910C03A091F3
:102020000D03B0910E034B2F5527662777273BE111
:10203000B695A795979587953A95D1F7842B80FD0E
:1020400012C08091E2029091E302803491050CF07D
:102050009AC05092E3024092E2028091E202909193
:10206000E3020E949A0440910B0350910C0360918B
:102070000D0370910E03DB01CA01ECE0B695A79544
:1020800097958795EA95D1F7C72EDD24EE24FF2496
:102090008C29ABE17695679557954795AA95D1F729
:1020A000842B80FD22C035E0E32EF12C80E290E00D
:1020B0000E949A0464E670E080E090E00E941A03B7
:1020C00090E080E00E949A0464E670E080E090E096
:1020D0000E941A0331E0E31AF10841F70C94000062
:1020E0008091E902882309F482C08091E402882368
:1020F00009F47DC0B12CA12C1A9D90011B9D300DBF
:102100001124A901415F5C4F7A01DA0111968D918A
:102110009C919C01205D37402C32314008F059C021
:10212000FA01208140910B0350910C0360910D0343
:1021300070910E0304C076956795579547952A953B
:10214000D2F741705527662777272385022E000C8A
:10215000330B24173507E9F1452B462B472B09F4A0
:1021600016C188E00E94D006F701818192810E9409
:10217000B206D7011A968C910E9496060E94FA0523
:10218000F70103872CC0803891052CF43092E302CC
:102190002092E20262CF803C910544F4B0EC8B2E99
:1021A000912C9092E3028092E20257CF8F3F9105EB
:1021B0003CF42FEF30E03093E3022093E2024DCF66
:1021C0008F3F910509F049CF1092E3021092E2028D
:1021D00044CF8C5F98408536910508F4EBC0BFEF83
:1021E000AB1ABB0AEBE1AE16B1040CF485CF0E942A
:1021F0004C036093EA027093EB028093EC0290939D
:10220000ED020E944C03C090E502D090E602E090FF
:10221000E702F090E8026C197D098E099F09613E82
:1022200073498440910580F00E94420590E080E06F
:102230000E949A040E944C036093E5027093E602A8
:102240008093E7029093E8028091F3058111AAC17F
:1022500080913D0890913E08DC01ED91FC91008455
:10226000F185E02D0995892B09F49CC180913D08E9
:1022700090913E08DC01ED91FC910084F185E02D08
:102280000995C12C22E0D22E8115924064F48091F0
:102290003D0890913E08DC01ED91FC910084F185B0
:1022A000E02D09956C0160903D0870903E0895E323
:1022B000892E96E0992E5401F12CE12CCE14DF04E6
:1022C00009F030C1B12CA12CCA14DB0409F4BCCF35
:1022D000D4019D914D011092350830914108209113
:1022E000F2059093F205931304C0921302C010926A
:1022F000F2058091EE05E82FF0E040913F08E451AF
:10230000FA4F941335C1321709F432C1118688236C
:1023100029F0B1E0B09335081092F2051092EE0565
:10232000109239081092380810923B0810923A081F
:10233000E1E0E0933608F0903508F1E0FF122EC19D
:102340000E946B01882309F41DC1F0923608F092B7
:10235000370880913808909139080E9408138093BB
:10236000ED05823308F013C120913708222309F4C8
:102370000EC1FC01FF27EE0FFF1FEC5BF74F019032
:10238000F081E02D309709F402C1099507C188E07A
:102390000E94D006D70111968D919C910E94B206A1
:1023A000F70181850E9496060E94FA05D7011B96C7
:1023B0001C9215CF6501FFEFCF1ADF0A80910B0346
:1023C00090910C03A0910D03B0910E031A9DF001A2
:1023D0001B9DF00D1124E15FFC4F2081AC01BD017C
:1023E00004C076956795579547952A95D2F7417021
:1023F0005527662777272385022E000C330B2417D9
:102400003507F9F41C9DF0011D9DF00D1124E15FCD
:10241000FC4F20813C014D0104C096948794779431
:1024200067942A95D2F769827A828B829C8229816D
:102430002170F22E2385022E000C330BF2161306A8
:1024400039F1452B462B472B29F588E00E94D00611
:102450001A9D90011B9D300D1124A901415F5C4F15
:102460007A01DA0111968D919C910E94B206F701D2
:1024700081850E9496060E94FA05D7011B961C9240
:102480001C9DF0011D9DF00D1124E15FFC4F0387A1
:102490005601A5CE1C9D90011D9D300D1124F90102
:1024A000E15FFC4F7F01208104C0B695A795979509
:1024B00087952A95D2F71A9D40011B9D900C1124F7
:1024C00080FD18C088E00E94D006D70111968D913A
:1024D0009C910E94B206F70181850E9496060E9497
:1024E000FA05D401A15FBC4F1B960C93D7011B9634
:1024F0001C92CECF88E00E94D006F401E15FFC4F31
:102500005F01818192810E94B206D5011A968C9159
:102510000E9496060E94FA05F5010387D7011B96D3
:102520000C93B6CF0E944C03F301608771878287BA
:102530009387D301ED91FC910284F385E02DC301D3
:10254000099597FF3CC00E944C03F301208531851B
:1025500042855385621B730B840B950B2481358157
:1025600046815781621773078407950710F3AACE37
:1025700091878F5F8093EE059091F005891708F0A1
:10258000CDCED9CE1092370890E080E0E8CEE09131
:102590004208F0914308309709F0F7CE2FEFA21AC6
:1025A000B20A92CE40E050E0452B09F407CD0E94DC
:1025B000F703882309F400CD0E940000FDCCD5016B
:1025C0008D935D01BFEFEB1AFB0A78CECF93DF93BB
:1025D000C3E5D4E02C97CE0103960E94E30583E087
:1025E000CF30D807B9F7C3E4D5E02C97CE010396D6
:1025F0000E94E30584E0C335D807B9F783E495E08A
:102600000E94E30589E495E0DF91CF910C94E30506
:10261000FC0188279927E89421912032E9F3293099
:1026200010F02E30C8F32B3241F02D3239F468947B
:1026300004C00E946213820F911D219120532A3001
:10264000C0F31EF4909581959F4F08951F93FC0150
:1026500099278827BC01E89411911032E9F31930C9
:1026600010F01E30C8F31B3251F01D3249F468944B
:1026700006C00E944D13610F711D811D911D1191A6
:1026800010531A30B0F33EF4909580957095619593
:102690007F4F8F4F9F4F1F910895592F482F372FEE
:1026A000262F660F771F881F991F660F771F881FB9
:1026B000991F620F731F841F951F660F771F881F56
:1026C000991F08957AE0979F902D879F802D910DF7
:1026D000112408952F923F924F925F926F927F92B2
:1026E0008F929F92AF92BF92CF92DF92EF92FF9222
:1026F0000F931F93CF93DF93CDB7DEB7CA1BDB0BCE
:102700000FB6F894DEBF0FBECDBF09942A88398872
:1027100048885F846E847D848C849B84AA84B98479
:10272000C884DF80EE80FD800C811B81AA81B98185
:10273000CE0FD11D0FB6F894DEBF0FBECDBFED0199
:102740000895A1E21A2EAA1BBB1BFD010DC0AA1FF2
:10275000BB1FEE1FFF1FA217B307E407F50720F00A
:10276000A21BB30BE40BF50B661F771F881F991F85
:102770001A9469F760957095809590959B01AC01CE
:10278000BD01CF010895EE0FFF1F0590F491E02DDC
:1027900009940F931F93CF93DF938230910510F428
:1027A00082E090E0E091AA08F091AB0830E020E0F0
:1027B000B0E0A0E0309799F42115310509F44AC042
:1027C000281B390B24303105D8F58A819B8161158E
:1027D000710589F1FB0193838283FE0111C0408161
:1027E00051810281138148175907E0F048175907B2
:1027F00099F4109761F012960C93129713961C930C
:102800003296CF01DF91CF911F910F9108950093E0
:10281000AA081093AB08F4CF2115310551F04217E7
:10282000530738F0A901DB019A01BD01DF01F8016E
:10283000C1CFEF01F9CF9093AB088093AA08CDCF19
:10284000FE01E20FF31F81939193225031093983E6
:102850002883D7CF2091A8083091A908232B41F4D1
:1028600020910201309103013093A9082093A80818
:1028700020910001309101012115310541F42DB75E
:102880003EB74091040150910501241B350BE091A6
:10289000A808F091A908E217F307A0F42E1B3F0B3C
:1028A0002817390778F0AC014E5F5F4F24173507C2
:1028B00048F04E0F5F1F5093A9084093A8088193DA
:1028C00091939FCFF0E0E0E09CCFCF93DF93009710
:1028D000E9F0FC01329713821282A091AA08B0910C
:1028E000AB08ED0130E020E01097A1F420813181A8
:1028F000820F931F2091A8083091A9082817390743
:1029000009F061C0F093A908E093A808DF91CF9186
:102910000895EA01CE17DF07E8F54A815B819E0141
:1029200041155105B1F7E901FB83EA8349915991BA
:10293000C40FD51FEC17FD0761F4808191810296C9
:10294000840F951FE90199838883828193819B83FA
:102950008A83F0E0E0E012968D919C9113970097A6
:10296000B9F52D913C911197CD010296820F931FDD
:102970002091A8083091A9082817390739F630970F
:1029800051F51092AB081092AA08B093A908A09331
:10299000A808BCCFD383C28340815181840F951F87
:1029A000C817D90761F44E5F5F4F88819981480F3E
:1029B000591F518340838A819B8193838283211590
:1029C000310509F0B0CFF093AB08E093AA089ECF91
:1029D000FD01DC01C0CF13821282D7CFB0E0A0E0AE
:1029E000E4EFF4E10C946C138C01009751F4CB01EB
:1029F0000E94C9138C01C801CDB7DEB7E0E10C9489
:102A00008813FC01E60FF71F9C0122503109E217E1
:102A1000F30708F49DC0D901CD91DC911197C61739
:102A2000D70798F0C530D10530F3CE01049786174B
:102A3000970708F3C61BD70B2297C193D1936D93C9
:102A40007C93CF010E946514D6CF5B01AC1ABD0AFE
:102A50004C018C0E9D1EA091AA08B091AB08512C80
:102A6000412CF12CE12C109731F58091A808909120
:102A7000A9088815990509F05CC04616570608F0A4
:102A800058C08091000190910101009741F48DB7E9
:102A90009EB74091040150910501841B950BE817E6
:102AA000F90708F055C0F093A908E093A808F901C8
:102AB00071836083A0CF8D919C91119712966C9039
:102AC000129713967C901397A815B90559F56C01C8
:102AD00042E0C40ED11CCA14DB0420F1AC014A1937
:102AE0005B09DA011296159780F062827382518336
:102AF0004083D9016D937C93E114F10471F0D70107
:102B00001396FC93EE93129776CF22968C0F9D1F0F
:102B1000F90191838083F301EFCFF093AB08E09349
:102B2000AA0869CF4816590608F42C017D01D30183
:102B30009ACFCB010E94C9137C01009749F0AE01E6
:102B4000B8010E94AB15C8010E946514870153CFDC
:102B500010E000E050CFFB01DC0102C001900D92BB
:102B600041505040D8F70895FB01DC018D91019050
:102B700080190110D9F3990B0895FB01DC01019034
:102B80000D920020E1F7089511E0CFE1D1E004C0FB
:102B9000FE010E94C3132196C032D107C9F7F894F1
:022BA000FFCF65
:102BA2000000AC088000000000002D048D03BA0371
:102BB2007A04EB03C903DD030D0A0053544F50009E
:102BC200444953434F4E4E45435400454E440049F9
:102BD2004E4954005343414E5354415445005049C9
:102BE2004E4700434F4E4649470033363062383134
:102BF2003265663130643333653534353765653770
:102C020062343132383435333666007B34636534AE
:102C1200393333662D383534372D343764302D61EE
:102C22003736392D3261313162333333393333310F
:102C32007D0053575F4C41505F4150555F535441A3
:102C420052540050425F43414C4C535F414C4C0044
:102C520053575F475057535F4C44475F464C415070
:102C62000053575F4655454C5F4C5F544B5F505580
:102C72004D5053310053575F414952505F504143C9
:102C82004B310053575F414952505F4150555F42AB
:102C92004C4545440053575F454C45435F455854A6
:102CA2005F504F5745520053575F454C45435F4273
:102CB2004154310053575F4C41505F4150555F4D75
:102CC20041535445520053575F4C41505F414E545B
:102CD200495F4943455F57494E470053575F4C414F
:102CE200505F414E54495F4943455F454E4731006D
:102CF20053575F4C41505F424541434F4E0053573B
:102D02005F4C41505F57494E470053575F4C41500B
:102D12005F5257595F5455524E4F46460053575FC4
:102D22004C41505F534541545F42454C5400535708
:102D32005F4C41505F5354524F42450053575F4CD2
:102D420041505F4E41560053575F4C41505F4C41DA
:102D52004E445F4C0053575F4C41505F4C414E44D0
:102D62005F520053575F4C41505F544158490053E2
:102D7200575F41444952535F4952315F4D4F444579
:022D820000004F
:00000001FF
